{
  "contractName": "TicTacToe",
  "abi": [
    {
      "constant": true,
      "inputs": [
        {
          "name": "",
          "type": "uint256"
        }
      ],
      "name": "games",
      "outputs": [
        {
          "name": "player1",
          "type": "address"
        },
        {
          "name": "player2",
          "type": "address"
        },
        {
          "name": "winner",
          "type": "address"
        },
        {
          "name": "hasWon",
          "type": "bool"
        },
        {
          "name": "turn",
          "type": "address"
        }
      ],
      "payable": false,
      "stateMutability": "view",
      "type": "function"
    },
    {
      "anonymous": false,
      "inputs": [
        {
          "indexed": false,
          "name": "",
          "type": "address"
        }
      ],
      "name": "WhoMadeTheMove",
      "type": "event"
    },
    {
      "anonymous": false,
      "inputs": [
        {
          "indexed": false,
          "name": "",
          "type": "address"
        }
      ],
      "name": "EnterWinnerCheck",
      "type": "event"
    },
    {
      "anonymous": false,
      "inputs": [
        {
          "indexed": false,
          "name": "",
          "type": "address"
        }
      ],
      "name": "FoundWinner",
      "type": "event"
    },
    {
      "anonymous": false,
      "inputs": [
        {
          "indexed": false,
          "name": "",
          "type": "address"
        }
      ],
      "name": "ShowTurn",
      "type": "event"
    },
    {
      "anonymous": false,
      "inputs": [
        {
          "indexed": false,
          "name": "",
          "type": "address"
        },
        {
          "indexed": false,
          "name": "",
          "type": "address"
        },
        {
          "indexed": false,
          "name": "",
          "type": "address[9]"
        },
        {
          "indexed": false,
          "name": "",
          "type": "address"
        },
        {
          "indexed": false,
          "name": "",
          "type": "bool"
        },
        {
          "indexed": false,
          "name": "",
          "type": "address"
        }
      ],
      "name": "ShowMEWhatIJustPushed",
      "type": "event"
    },
    {
      "constant": false,
      "inputs": [
        {
          "name": "_p1",
          "type": "address"
        },
        {
          "name": "_player2",
          "type": "address"
        }
      ],
      "name": "createGame",
      "outputs": [],
      "payable": false,
      "stateMutability": "nonpayable",
      "type": "function"
    },
    {
      "constant": false,
      "inputs": [
        {
          "name": "_player",
          "type": "address"
        },
        {
          "name": "_xy",
          "type": "uint8"
        }
      ],
      "name": "makeMove",
      "outputs": [
        {
          "name": "",
          "type": "bool"
        }
      ],
      "payable": false,
      "stateMutability": "nonpayable",
      "type": "function"
    }
  ],
  "bytecode": "0x606060405260006001556009600255341561001957600080fd5b611abd806100286000396000f300606060405260043610610057576000357c0100000000000000000000000000000000000000000000000000000000900463ffffffff168063117a5b901461005c578063774d5d3114610163578063a6f979ff146101c0575b600080fd5b341561006757600080fd5b61007d6004808035906020019091905050610218565b604051808673ffffffffffffffffffffffffffffffffffffffff1673ffffffffffffffffffffffffffffffffffffffff1681526020018573ffffffffffffffffffffffffffffffffffffffff1673ffffffffffffffffffffffffffffffffffffffff1681526020018473ffffffffffffffffffffffffffffffffffffffff1673ffffffffffffffffffffffffffffffffffffffff168152602001831515151581526020018273ffffffffffffffffffffffffffffffffffffffff1673ffffffffffffffffffffffffffffffffffffffff1681526020019550505050505060405180910390f35b341561016e57600080fd5b6101a6600480803573ffffffffffffffffffffffffffffffffffffffff1690602001909190803560ff169060200190919050506102ea565b604051808215151515815260200191505060405180910390f35b34156101cb57600080fd5b610216600480803573ffffffffffffffffffffffffffffffffffffffff1690602001909190803573ffffffffffffffffffffffffffffffffffffffff16906020019091905050610d3c565b005b60038181548110151561022757fe5b90600052602060002090600d02016000915090508060000160009054906101000a900473ffffffffffffffffffffffffffffffffffffffff16908060010160009054906101000a900473ffffffffffffffffffffffffffffffffffffffff169080600b0160009054906101000a900473ffffffffffffffffffffffffffffffffffffffff169080600b0160149054906101000a900460ff169080600c0160009054906101000a900473ffffffffffffffffffffffffffffffffffffffff16905085565b60006102f4611772565b60007f992f97814a88e542a9b3167089eaf0c1072d40c671e3c52eaa95aaa98fa10be885604051808273ffffffffffffffffffffffffffffffffffffffff1673ffffffffffffffffffffffffffffffffffffffff16815260200191505060405180910390a160006002541415151561036b57600080fd5b600360015481548110151561037c57fe5b90600052602060002090600d020160c060405190810160405290816000820160009054906101000a900473ffffffffffffffffffffffffffffffffffffffff1673ffffffffffffffffffffffffffffffffffffffff1673ffffffffffffffffffffffffffffffffffffffff1681526020016001820160009054906101000a900473ffffffffffffffffffffffffffffffffffffffff1673ffffffffffffffffffffffffffffffffffffffff1673ffffffffffffffffffffffffffffffffffffffff168152602001600282016009806020026040519081016040528092919082600980156104b4576020028201915b8160009054906101000a900473ffffffffffffffffffffffffffffffffffffffff1673ffffffffffffffffffffffffffffffffffffffff168152602001906001019080831161046a575b50505050508152602001600b820160009054906101000a900473ffffffffffffffffffffffffffffffffffffffff1673ffffffffffffffffffffffffffffffffffffffff1673ffffffffffffffffffffffffffffffffffffffff168152602001600b820160149054906101000a900460ff16151515158152602001600c820160009054906101000a900473ffffffffffffffffffffffffffffffffffffffff1673ffffffffffffffffffffffffffffffffffffffff1673ffffffffffffffffffffffffffffffffffffffff168152505091508473ffffffffffffffffffffffffffffffffffffffff163373ffffffffffffffffffffffffffffffffffffffff161415156105c057600080fd5b8473ffffffffffffffffffffffffffffffffffffffff168260a0015173ffffffffffffffffffffffffffffffffffffffff161415156105fe57600080fd5b600082604001518560ff1660098110151561061557fe5b602002015173ffffffffffffffffffffffffffffffffffffffff1614151561063c57600080fd5b60011515826080015115151415151561065457600080fd5b84600360015481548110151561066657fe5b90600052602060002090600d02016002018560ff1660098110151561068757fe5b0160006101000a81548173ffffffffffffffffffffffffffffffffffffffff021916908373ffffffffffffffffffffffffffffffffffffffff160217905550600115156106d48387610f53565b15151415610791577f0e0e65cec4c1c2f59c27da17a9032d74cbd746912b7780885392a762c60d00e985604051808273ffffffffffffffffffffffffffffffffffffffff1673ffffffffffffffffffffffffffffffffffffffff16815260200191505060405180910390a184826060019073ffffffffffffffffffffffffffffffffffffffff16908173ffffffffffffffffffffffffffffffffffffffff1681525050600182608001901515908115158152505060019250610d34565b60001515826080015115151415610d3357816000015173ffffffffffffffffffffffffffffffffffffffff1660036001548154811015156107ce57fe5b90600052602060002090600d0201600c0160009054906101000a900473ffffffffffffffffffffffffffffffffffffffff1673ffffffffffffffffffffffffffffffffffffffff16141561088b57816020015190507ff9512bf5c694674ca6aec7d7ceb7b983357a8e882098be937cdeeaff9a3ab36d81604051808273ffffffffffffffffffffffffffffffffffffffff1673ffffffffffffffffffffffffffffffffffffffff16815260200191505060405180910390a16108f6565b816000015190507ff9512bf5c694674ca6aec7d7ceb7b983357a8e882098be937cdeeaff9a3ab36d81604051808273ffffffffffffffffffffffffffffffffffffffff1673ffffffffffffffffffffffffffffffffffffffff16815260200191505060405180910390a15b6003805480600101828161090a919061180a565b91600052602060002090600d0201600060c060405190810160405280866000015173ffffffffffffffffffffffffffffffffffffffff168152602001866020015173ffffffffffffffffffffffffffffffffffffffff168152602001600360015481548110151561097757fe5b90600052602060002090600d02016002016009806020026040519081016040528092919082600980156109f5576020028201915b8160009054906101000a900473ffffffffffffffffffffffffffffffffffffffff1673ffffffffffffffffffffffffffffffffffffffff16815260200190600101908083116109ab575b50505050508152602001600073ffffffffffffffffffffffffffffffffffffffff1681526020016000151581526020018573ffffffffffffffffffffffffffffffffffffffff16815250909190915060008201518160000160006101000a81548173ffffffffffffffffffffffffffffffffffffffff021916908373ffffffffffffffffffffffffffffffffffffffff16021790555060208201518160010160006101000a81548173ffffffffffffffffffffffffffffffffffffffff021916908373ffffffffffffffffffffffffffffffffffffffff160217905550604082015181600201906009610ae992919061183c565b50606082015181600b0160006101000a81548173ffffffffffffffffffffffffffffffffffffffff021916908373ffffffffffffffffffffffffffffffffffffffff160217905550608082015181600b0160146101000a81548160ff02191690831515021790555060a082015181600c0160006101000a81548173ffffffffffffffffffffffffffffffffffffffff021916908373ffffffffffffffffffffffffffffffffffffffff1602179055505050507f5445dc2f7e94c0a0cdc0726a983ecdd47a188149ec8503f0b88665fd7bde4c71826000015183602001516003600154815481101515610bd757fe5b90600052602060002090600d020160020160008086604051808773ffffffffffffffffffffffffffffffffffffffff1673ffffffffffffffffffffffffffffffffffffffff1681526020018673ffffffffffffffffffffffffffffffffffffffff1673ffffffffffffffffffffffffffffffffffffffff1681526020018560098015610cae576020028201915b8160009054906101000a900473ffffffffffffffffffffffffffffffffffffffff1673ffffffffffffffffffffffffffffffffffffffff1681526020019060010190808311610c64575b50508473ffffffffffffffffffffffffffffffffffffffff168152602001831515151581526020018273ffffffffffffffffffffffffffffffffffffffff1673ffffffffffffffffffffffffffffffffffffffff168152602001965050505050505060405180910390a160016000815480929190600101919050555060009250610d34565b5b505092915050565b610d446118b9565b60038054806001018281610d58919061180a565b91600052602060002090600d0201600060c0604051908101604052808773ffffffffffffffffffffffffffffffffffffffff1681526020018673ffffffffffffffffffffffffffffffffffffffff168152602001858152602001600073ffffffffffffffffffffffffffffffffffffffff1681526020016000151581526020018773ffffffffffffffffffffffffffffffffffffffff16815250909190915060008201518160000160006101000a81548173ffffffffffffffffffffffffffffffffffffffff021916908373ffffffffffffffffffffffffffffffffffffffff16021790555060208201518160010160006101000a81548173ffffffffffffffffffffffffffffffffffffffff021916908373ffffffffffffffffffffffffffffffffffffffff160217905550604082015181600201906009610e9c92919061183c565b50606082015181600b0160006101000a81548173ffffffffffffffffffffffffffffffffffffffff021916908373ffffffffffffffffffffffffffffffffffffffff160217905550608082015181600b0160146101000a81548160ff02191690831515021790555060a082015181600c0160006101000a81548173ffffffffffffffffffffffffffffffffffffffff021916908373ffffffffffffffffffffffffffffffffffffffff160217905550505050505050565b60008173ffffffffffffffffffffffffffffffffffffffff1683604001516000600981101515610f7f57fe5b602002015173ffffffffffffffffffffffffffffffffffffffff16148015610fe957508173ffffffffffffffffffffffffffffffffffffffff1683604001516001600981101515610fcc57fe5b602002015173ffffffffffffffffffffffffffffffffffffffff16145b801561103757508173ffffffffffffffffffffffffffffffffffffffff168360400151600260098110151561101a57fe5b602002015173ffffffffffffffffffffffffffffffffffffffff16145b8061112057508173ffffffffffffffffffffffffffffffffffffffff168360400151600360098110151561106757fe5b602002015173ffffffffffffffffffffffffffffffffffffffff161480156110d157508173ffffffffffffffffffffffffffffffffffffffff16836040015160046009811015156110b457fe5b602002015173ffffffffffffffffffffffffffffffffffffffff16145b801561111f57508173ffffffffffffffffffffffffffffffffffffffff168360400151600560098110151561110257fe5b602002015173ffffffffffffffffffffffffffffffffffffffff16145b5b8061120957508173ffffffffffffffffffffffffffffffffffffffff168360400151600660098110151561115057fe5b602002015173ffffffffffffffffffffffffffffffffffffffff161480156111ba57508173ffffffffffffffffffffffffffffffffffffffff168360400151600760098110151561119d57fe5b602002015173ffffffffffffffffffffffffffffffffffffffff16145b801561120857508173ffffffffffffffffffffffffffffffffffffffff16836040015160086009811015156111eb57fe5b602002015173ffffffffffffffffffffffffffffffffffffffff16145b5b806112f257508173ffffffffffffffffffffffffffffffffffffffff168360400151600060098110151561123957fe5b602002015173ffffffffffffffffffffffffffffffffffffffff161480156112a357508173ffffffffffffffffffffffffffffffffffffffff168360400151600360098110151561128657fe5b602002015173ffffffffffffffffffffffffffffffffffffffff16145b80156112f157508173ffffffffffffffffffffffffffffffffffffffff16836040015160066009811015156112d457fe5b602002015173ffffffffffffffffffffffffffffffffffffffff16145b5b806113db57508173ffffffffffffffffffffffffffffffffffffffff168360400151600160098110151561132257fe5b602002015173ffffffffffffffffffffffffffffffffffffffff1614801561138c57508173ffffffffffffffffffffffffffffffffffffffff168360400151600460098110151561136f57fe5b602002015173ffffffffffffffffffffffffffffffffffffffff16145b80156113da57508173ffffffffffffffffffffffffffffffffffffffff16836040015160076009811015156113bd57fe5b602002015173ffffffffffffffffffffffffffffffffffffffff16145b5b806114c457508173ffffffffffffffffffffffffffffffffffffffff168360400151600260098110151561140b57fe5b602002015173ffffffffffffffffffffffffffffffffffffffff1614801561147557508173ffffffffffffffffffffffffffffffffffffffff168360400151600560098110151561145857fe5b602002015173ffffffffffffffffffffffffffffffffffffffff16145b80156114c357508173ffffffffffffffffffffffffffffffffffffffff16836040015160086009811015156114a657fe5b602002015173ffffffffffffffffffffffffffffffffffffffff16145b5b806115ad57508173ffffffffffffffffffffffffffffffffffffffff16836040015160006009811015156114f457fe5b602002015173ffffffffffffffffffffffffffffffffffffffff1614801561155e57508173ffffffffffffffffffffffffffffffffffffffff168360400151600460098110151561154157fe5b602002015173ffffffffffffffffffffffffffffffffffffffff16145b80156115ac57508173ffffffffffffffffffffffffffffffffffffffff168360400151600860098110151561158f57fe5b602002015173ffffffffffffffffffffffffffffffffffffffff16145b5b8061169657508173ffffffffffffffffffffffffffffffffffffffff16836040015160026009811015156115dd57fe5b602002015173ffffffffffffffffffffffffffffffffffffffff1614801561164757508173ffffffffffffffffffffffffffffffffffffffff168360400151600460098110151561162a57fe5b602002015173ffffffffffffffffffffffffffffffffffffffff16145b801561169557508173ffffffffffffffffffffffffffffffffffffffff168360400151600660098110151561167857fe5b602002015173ffffffffffffffffffffffffffffffffffffffff16145b5b15611712577f8082e4683a80b8737a7f95a34f64572123e539b5615e0288b9c418619996a03e82604051808273ffffffffffffffffffffffffffffffffffffffff1673ffffffffffffffffffffffffffffffffffffffff16815260200191505060405180910390a1611708838361171d565b5060019050611717565b600090505b92915050565b600081836060019073ffffffffffffffffffffffffffffffffffffffff16908173ffffffffffffffffffffffffffffffffffffffff168152505060018360800190151590811515815250506001905092915050565b6101c060405190810160405280600073ffffffffffffffffffffffffffffffffffffffff168152602001600073ffffffffffffffffffffffffffffffffffffffff1681526020016117c16118f8565b8152602001600073ffffffffffffffffffffffffffffffffffffffff168152602001600015158152602001600073ffffffffffffffffffffffffffffffffffffffff1681525090565b81548183558181151161183757600d0281600d0283600052602060002091820191016118369190611937565b5b505050565b82600981019282156118a8579160200282015b828111156118a75782518260006101000a81548173ffffffffffffffffffffffffffffffffffffffff021916908373ffffffffffffffffffffffffffffffffffffffff1602179055509160200191906001019061184f565b5b5090506118b59190611a16565b5090565b610120604051908101604052806009905b600073ffffffffffffffffffffffffffffffffffffffff168152602001906001900390816118ca5790505090565b610120604051908101604052806009905b600073ffffffffffffffffffffffffffffffffffffffff168152602001906001900390816119095790505090565b611a1391905b80821115611a0f57600080820160006101000a81549073ffffffffffffffffffffffffffffffffffffffff02191690556001820160006101000a81549073ffffffffffffffffffffffffffffffffffffffff02191690556002820160006119a49190611a59565b600b820160006101000a81549073ffffffffffffffffffffffffffffffffffffffff0219169055600b820160146101000a81549060ff0219169055600c820160006101000a81549073ffffffffffffffffffffffffffffffffffffffff021916905550600d0161193d565b5090565b90565b611a5691905b80821115611a5257600081816101000a81549073ffffffffffffffffffffffffffffffffffffffff021916905550600101611a1c565b5090565b90565b508060090190611a699190611a6c565b50565b611a8e91905b80821115611a8a576000816000905550600101611a72565b5090565b905600a165627a7a72305820720410a8963f719b9373f76df844c1e32380bffedc0ac2be2060532dce2976630029",
  "source": "pragma solidity ^0.4.17;\ncontract TicTacToe{\n\n    struct Game {\n        address player1;\n        address player2;\n        address[9] board;\n        address winner;\n        bool hasWon;\n        address turn;\n    }\n\n    mapping(uint => Game) myGame;\n\n    uint id =0;\n    uint availS = 9;\n\n    Game[] public games;\n\n    event WhoMadeTheMove(address);\n    event EnterWinnerCheck(address);\n    event FoundWinner(address);\n    event ShowTurn(address);\n    event ShowMEWhatIJustPushed(address,address,address[9],address,bool,address);\n\n\n\n\n\n    function createGame(address _p1, address _player2) public {\n        address[9] memory board;\n        games.push(Game(_p1, _player2, board, 0, false, _p1));\n\n\n    }\n\n\n\n\n    function makeMove( address _player, uint8 _xy) public returns (bool) { // will return true if one player won and game is over\n        WhoMadeTheMove(_player);\n        require(availS!=0);\n        Game memory g = games[id];\n        require(msg.sender == _player);\n        require(g.turn == _player);\n        require(g.board[_xy] == 0);\n        require(g.hasWon != true);\n        games[id].board[_xy] = _player;\n        //games[id].turn = _player == g.player1 ? g.player2 : g.player1;// wth is this doing\n\n\n        if(checkWin(g, _player) == true){\n            FoundWinner(_player);\n            g.winner = _player;\n            g.hasWon = true;\n\n            return true;\n        }\n\n\n        if(g.hasWon == false){\n            address myTurn;\n            if(games[id].turn == g.player1 ){\n\n                myTurn= g.player2;\n                ShowTurn(myTurn);\n            }else{\n                myTurn=g.player1;\n                ShowTurn(myTurn);\n            }\n\n            games.push(Game(g.player1,g.player2, games[id].board,0,false,myTurn));\n            ShowMEWhatIJustPushed(g.player1,g.player2, games[id].board,0,false,myTurn);\n            id++;\n\n            return false;\n\n        }\n\n\n    }\n\n    function setWinner(Game _g, address _winner) private pure returns (bool) {\n        _g.winner = _winner;\n        _g.hasWon = true;\n        return true;\n    }\n\n\n    function availableSPots(Game _game) private returns (uint) {\n        for(uint i=0; i<=9; i++){\n            if(_game.board[i]== 0){\n                availS --;\n            }\n        }\n\n        return availS;\n    }\n\n    function checkWin(Game _game, address _player) private  returns (bool) {\n\n        if (\n            (_game.board[0] == _player && _game.board[1] == _player && _game.board[2] == _player) ||\n            (_game.board[3] == _player && _game.board[4] == _player && _game.board[5] == _player) ||\n            (_game.board[6] == _player && _game.board[7] == _player && _game.board[8] == _player) ||\n            (_game.board[0] == _player && _game.board[3] == _player && _game.board[6] == _player) ||\n            (_game.board[1] == _player && _game.board[4] == _player && _game.board[7] == _player) ||\n            (_game.board[2] == _player && _game.board[5] == _player && _game.board[8] == _player) ||\n            (_game.board[0] == _player && _game.board[4] == _player && _game.board[8] == _player) ||\n            (_game.board[2] == _player && _game.board[4] == _player && _game.board[6] == _player)\n        ) {\n            EnterWinnerCheck(_player);\n            setWinner(_game,_player);\n            return true;\n        } else {\n            return false;\n        }\n\n    }\n}",
  "sourcePath": "/home/sahar/Documents/workspace/tictac/contracts/TicTacToe.sol",
  "compiler": {
    "name": "solc",
    "version": "0.4.19+commit.c4cbbb05.Emscripten.clang"
  },
  "schemaVersion": "1.0.1",
  "updatedAt": "2018-04-06T00:21:01.101Z"
}