{
  "contractName": "TicTacToe",
  "abi": [
    {
      "constant": true,
      "inputs": [
        {
          "name": "",
          "type": "uint256"
        }
      ],
      "name": "games",
      "outputs": [
        {
          "name": "player1",
          "type": "address"
        },
        {
          "name": "player2",
          "type": "address"
        },
        {
          "name": "winner",
          "type": "address"
        },
        {
          "name": "hasWon",
          "type": "bool"
        },
        {
          "name": "turn",
          "type": "address"
        }
      ],
      "payable": false,
      "stateMutability": "view",
      "type": "function"
    },
    {
      "anonymous": false,
      "inputs": [
        {
          "indexed": false,
          "name": "a",
          "type": "address"
        }
      ],
      "name": "WhoMadeTheMove",
      "type": "event"
    },
    {
      "anonymous": false,
      "inputs": [
        {
          "indexed": false,
          "name": "b",
          "type": "address"
        }
      ],
      "name": "EnterWinnerCheck",
      "type": "event"
    },
    {
      "anonymous": false,
      "inputs": [
        {
          "indexed": false,
          "name": "c",
          "type": "address"
        }
      ],
      "name": "FoundWinner",
      "type": "event"
    },
    {
      "anonymous": false,
      "inputs": [
        {
          "indexed": false,
          "name": "d",
          "type": "address"
        }
      ],
      "name": "ShowTurn",
      "type": "event"
    },
    {
      "anonymous": false,
      "inputs": [
        {
          "indexed": false,
          "name": "e",
          "type": "address"
        },
        {
          "indexed": false,
          "name": "f",
          "type": "address"
        },
        {
          "indexed": false,
          "name": "g",
          "type": "address[9]"
        },
        {
          "indexed": false,
          "name": "h",
          "type": "address"
        },
        {
          "indexed": false,
          "name": "i",
          "type": "bool"
        },
        {
          "indexed": false,
          "name": "j",
          "type": "address"
        }
      ],
      "name": "ShowMEWhatIJustPushed",
      "type": "event"
    },
    {
      "anonymous": false,
      "inputs": [
        {
          "indexed": false,
          "name": "random",
          "type": "string"
        }
      ],
      "name": "TieGameStill",
      "type": "event"
    },
    {
      "constant": false,
      "inputs": [
        {
          "name": "_player1",
          "type": "address"
        },
        {
          "name": "_player2",
          "type": "address"
        }
      ],
      "name": "createGame",
      "outputs": [],
      "payable": false,
      "stateMutability": "nonpayable",
      "type": "function"
    },
    {
      "constant": false,
      "inputs": [
        {
          "name": "id",
          "type": "uint256"
        },
        {
          "name": "_xy",
          "type": "uint8"
        }
      ],
      "name": "makeMove",
      "outputs": [],
      "payable": false,
      "stateMutability": "nonpayable",
      "type": "function"
    },
    {
      "constant": true,
      "inputs": [
        {
          "name": "id",
          "type": "uint256"
        }
      ],
      "name": "getBoard",
      "outputs": [
        {
          "name": "",
          "type": "address[9]"
        }
      ],
      "payable": false,
      "stateMutability": "view",
      "type": "function"
    }
  ],
  "bytecode": "0x6060604052341561000f57600080fd5b6118fb8061001e6000396000f300606060405260043610610062576000357c0100000000000000000000000000000000000000000000000000000000900463ffffffff168063117a5b901461006757806345e09e541461016e5780637fd6f7c4146101cd578063a6f979ff146101fc575b600080fd5b341561007257600080fd5b6100886004808035906020019091905050610254565b604051808673ffffffffffffffffffffffffffffffffffffffff1673ffffffffffffffffffffffffffffffffffffffff1681526020018573ffffffffffffffffffffffffffffffffffffffff1673ffffffffffffffffffffffffffffffffffffffff1681526020018473ffffffffffffffffffffffffffffffffffffffff1673ffffffffffffffffffffffffffffffffffffffff168152602001831515151581526020018273ffffffffffffffffffffffffffffffffffffffff1673ffffffffffffffffffffffffffffffffffffffff1681526020019550505050505060405180910390f35b341561017957600080fd5b61018f6004808035906020019091905050610326565b6040518082600960200280838360005b838110156101ba57808201518184015260208101905061019f565b5050505090500191505060405180910390f35b34156101d857600080fd5b6101fa600480803590602001909190803560ff169060200190919050506103d3565b005b341561020757600080fd5b610252600480803573ffffffffffffffffffffffffffffffffffffffff1690602001909190803573ffffffffffffffffffffffffffffffffffffffff16906020019091905050610bdd565b005b60008181548110151561026357fe5b90600052602060002090600d02016000915090508060000160009054906101000a900473ffffffffffffffffffffffffffffffffffffffff16908060010160009054906101000a900473ffffffffffffffffffffffffffffffffffffffff169080600b0160009054906101000a900473ffffffffffffffffffffffffffffffffffffffff169080600b0160149054906101000a900460ff169080600c0160009054906101000a900473ffffffffffffffffffffffffffffffffffffffff16905085565b61032e6115b0565b6103366115b0565b60008381548110151561034557fe5b90600052602060002090600d02016002016009806020026040519081016040528092919082600980156103c3576020028201915b8160009054906101000a900473ffffffffffffffffffffffffffffffffffffffff1673ffffffffffffffffffffffffffffffffffffffff1681526020019060010190808311610379575b5050505050905080915050919050565b6103db6115ef565b6000838154811015156103ea57fe5b90600052602060002090600d020160c060405190810160405290816000820160009054906101000a900473ffffffffffffffffffffffffffffffffffffffff1673ffffffffffffffffffffffffffffffffffffffff1673ffffffffffffffffffffffffffffffffffffffff1681526020016001820160009054906101000a900473ffffffffffffffffffffffffffffffffffffffff1673ffffffffffffffffffffffffffffffffffffffff1673ffffffffffffffffffffffffffffffffffffffff16815260200160028201600980602002604051908101604052809291908260098015610522576020028201915b8160009054906101000a900473ffffffffffffffffffffffffffffffffffffffff1673ffffffffffffffffffffffffffffffffffffffff16815260200190600101908083116104d8575b50505050508152602001600b820160009054906101000a900473ffffffffffffffffffffffffffffffffffffffff1673ffffffffffffffffffffffffffffffffffffffff1673ffffffffffffffffffffffffffffffffffffffff168152602001600b820160149054906101000a900460ff16151515158152602001600c820160009054906101000a900473ffffffffffffffffffffffffffffffffffffffff1673ffffffffffffffffffffffffffffffffffffffff1673ffffffffffffffffffffffffffffffffffffffff168152505090503373ffffffffffffffffffffffffffffffffffffffff168160a0015173ffffffffffffffffffffffffffffffffffffffff1614151561063257600080fd5b600081604001518360ff1660098110151561064957fe5b602002015173ffffffffffffffffffffffffffffffffffffffff1614151561067057600080fd5b60011515816080015115151415151561068857600080fd5b3360008481548110151561069857fe5b90600052602060002090600d02016002018360ff166009811015156106b957fe5b0160006101000a81548173ffffffffffffffffffffffffffffffffffffffff021916908373ffffffffffffffffffffffffffffffffffffffff160217905550806000015173ffffffffffffffffffffffffffffffffffffffff163373ffffffffffffffffffffffffffffffffffffffff161461073957806000015161073f565b80602001515b60008481548110151561074e57fe5b90600052602060002090600d0201600c0160006101000a81548173ffffffffffffffffffffffffffffffffffffffff021916908373ffffffffffffffffffffffffffffffffffffffff1602179055507ff9512bf5c694674ca6aec7d7ceb7b983357a8e882098be937cdeeaff9a3ab36d6000848154811015156107cd57fe5b90600052602060002090600d0201600c0160009054906101000a900473ffffffffffffffffffffffffffffffffffffffff16604051808273ffffffffffffffffffffffffffffffffffffffff1673ffffffffffffffffffffffffffffffffffffffff16815260200191505060405180910390a160008381548110151561084f57fe5b90600052602060002090600d020160c060405190810160405290816000820160009054906101000a900473ffffffffffffffffffffffffffffffffffffffff1673ffffffffffffffffffffffffffffffffffffffff1673ffffffffffffffffffffffffffffffffffffffff1681526020016001820160009054906101000a900473ffffffffffffffffffffffffffffffffffffffff1673ffffffffffffffffffffffffffffffffffffffff1673ffffffffffffffffffffffffffffffffffffffff16815260200160028201600980602002604051908101604052809291908260098015610987576020028201915b8160009054906101000a900473ffffffffffffffffffffffffffffffffffffffff1673ffffffffffffffffffffffffffffffffffffffff168152602001906001019080831161093d575b50505050508152602001600b820160009054906101000a900473ffffffffffffffffffffffffffffffffffffffff1673ffffffffffffffffffffffffffffffffffffffff1673ffffffffffffffffffffffffffffffffffffffff168152602001600b820160149054906101000a900460ff16151515158152602001600c820160009054906101000a900473ffffffffffffffffffffffffffffffffffffffff1673ffffffffffffffffffffffffffffffffffffffff1673ffffffffffffffffffffffffffffffffffffffff1681525050905060011515610a678233610df4565b15151415610b6f577f0e0e65cec4c1c2f59c27da17a9032d74cbd746912b7780885392a762c60d00e933604051808273ffffffffffffffffffffffffffffffffffffffff1673ffffffffffffffffffffffffffffffffffffffff16815260200191505060405180910390a133600084815481101515610ae257fe5b90600052602060002090600d0201600b0160006101000a81548173ffffffffffffffffffffffffffffffffffffffff021916908373ffffffffffffffffffffffffffffffffffffffff1602179055506001600084815481101515610b4257fe5b90600052602060002090600d0201600b0160146101000a81548160ff021916908315150217905550610bd8565b7f62bd1d4b26364362c9cd37eca50ac70430590dd3085fe901e710b3214365b51460405180806020018281038252600e8152602001807f4e6f2077696e6e6572732079657400000000000000000000000000000000000081525060200191505060405180910390a15b505050565b610be56115b0565b60008054806001018281610bf99190611687565b91600052602060002090600d0201600060c0604051908101604052808773ffffffffffffffffffffffffffffffffffffffff1681526020018673ffffffffffffffffffffffffffffffffffffffff168152602001858152602001600073ffffffffffffffffffffffffffffffffffffffff1681526020016000151581526020018773ffffffffffffffffffffffffffffffffffffffff16815250909190915060008201518160000160006101000a81548173ffffffffffffffffffffffffffffffffffffffff021916908373ffffffffffffffffffffffffffffffffffffffff16021790555060208201518160010160006101000a81548173ffffffffffffffffffffffffffffffffffffffff021916908373ffffffffffffffffffffffffffffffffffffffff160217905550604082015181600201906009610d3d9291906116b9565b50606082015181600b0160006101000a81548173ffffffffffffffffffffffffffffffffffffffff021916908373ffffffffffffffffffffffffffffffffffffffff160217905550608082015181600b0160146101000a81548160ff02191690831515021790555060a082015181600c0160006101000a81548173ffffffffffffffffffffffffffffffffffffffff021916908373ffffffffffffffffffffffffffffffffffffffff160217905550505050505050565b60008173ffffffffffffffffffffffffffffffffffffffff1683604001516000600981101515610e2057fe5b602002015173ffffffffffffffffffffffffffffffffffffffff16148015610e8a57508173ffffffffffffffffffffffffffffffffffffffff1683604001516001600981101515610e6d57fe5b602002015173ffffffffffffffffffffffffffffffffffffffff16145b8015610ed857508173ffffffffffffffffffffffffffffffffffffffff1683604001516002600981101515610ebb57fe5b602002015173ffffffffffffffffffffffffffffffffffffffff16145b80610fc157508173ffffffffffffffffffffffffffffffffffffffff1683604001516003600981101515610f0857fe5b602002015173ffffffffffffffffffffffffffffffffffffffff16148015610f7257508173ffffffffffffffffffffffffffffffffffffffff1683604001516004600981101515610f5557fe5b602002015173ffffffffffffffffffffffffffffffffffffffff16145b8015610fc057508173ffffffffffffffffffffffffffffffffffffffff1683604001516005600981101515610fa357fe5b602002015173ffffffffffffffffffffffffffffffffffffffff16145b5b806110aa57508173ffffffffffffffffffffffffffffffffffffffff1683604001516006600981101515610ff157fe5b602002015173ffffffffffffffffffffffffffffffffffffffff1614801561105b57508173ffffffffffffffffffffffffffffffffffffffff168360400151600760098110151561103e57fe5b602002015173ffffffffffffffffffffffffffffffffffffffff16145b80156110a957508173ffffffffffffffffffffffffffffffffffffffff168360400151600860098110151561108c57fe5b602002015173ffffffffffffffffffffffffffffffffffffffff16145b5b8061119357508173ffffffffffffffffffffffffffffffffffffffff16836040015160006009811015156110da57fe5b602002015173ffffffffffffffffffffffffffffffffffffffff1614801561114457508173ffffffffffffffffffffffffffffffffffffffff168360400151600360098110151561112757fe5b602002015173ffffffffffffffffffffffffffffffffffffffff16145b801561119257508173ffffffffffffffffffffffffffffffffffffffff168360400151600660098110151561117557fe5b602002015173ffffffffffffffffffffffffffffffffffffffff16145b5b8061127c57508173ffffffffffffffffffffffffffffffffffffffff16836040015160016009811015156111c357fe5b602002015173ffffffffffffffffffffffffffffffffffffffff1614801561122d57508173ffffffffffffffffffffffffffffffffffffffff168360400151600460098110151561121057fe5b602002015173ffffffffffffffffffffffffffffffffffffffff16145b801561127b57508173ffffffffffffffffffffffffffffffffffffffff168360400151600760098110151561125e57fe5b602002015173ffffffffffffffffffffffffffffffffffffffff16145b5b8061136557508173ffffffffffffffffffffffffffffffffffffffff16836040015160026009811015156112ac57fe5b602002015173ffffffffffffffffffffffffffffffffffffffff1614801561131657508173ffffffffffffffffffffffffffffffffffffffff16836040015160056009811015156112f957fe5b602002015173ffffffffffffffffffffffffffffffffffffffff16145b801561136457508173ffffffffffffffffffffffffffffffffffffffff168360400151600860098110151561134757fe5b602002015173ffffffffffffffffffffffffffffffffffffffff16145b5b8061144e57508173ffffffffffffffffffffffffffffffffffffffff168360400151600060098110151561139557fe5b602002015173ffffffffffffffffffffffffffffffffffffffff161480156113ff57508173ffffffffffffffffffffffffffffffffffffffff16836040015160046009811015156113e257fe5b602002015173ffffffffffffffffffffffffffffffffffffffff16145b801561144d57508173ffffffffffffffffffffffffffffffffffffffff168360400151600860098110151561143057fe5b602002015173ffffffffffffffffffffffffffffffffffffffff16145b5b8061153757508173ffffffffffffffffffffffffffffffffffffffff168360400151600260098110151561147e57fe5b602002015173ffffffffffffffffffffffffffffffffffffffff161480156114e857508173ffffffffffffffffffffffffffffffffffffffff16836040015160046009811015156114cb57fe5b602002015173ffffffffffffffffffffffffffffffffffffffff16145b801561153657508173ffffffffffffffffffffffffffffffffffffffff168360400151600660098110151561151957fe5b602002015173ffffffffffffffffffffffffffffffffffffffff16145b5b1561155057611546838361155b565b5060019050611555565b600090505b92915050565b600081836060019073ffffffffffffffffffffffffffffffffffffffff16908173ffffffffffffffffffffffffffffffffffffffff168152505060018360800190151590811515815250506001905092915050565b610120604051908101604052806009905b600073ffffffffffffffffffffffffffffffffffffffff168152602001906001900390816115c15790505090565b6101c060405190810160405280600073ffffffffffffffffffffffffffffffffffffffff168152602001600073ffffffffffffffffffffffffffffffffffffffff16815260200161163e611736565b8152602001600073ffffffffffffffffffffffffffffffffffffffff168152602001600015158152602001600073ffffffffffffffffffffffffffffffffffffffff1681525090565b8154818355818115116116b457600d0281600d0283600052602060002091820191016116b39190611775565b5b505050565b8260098101928215611725579160200282015b828111156117245782518260006101000a81548173ffffffffffffffffffffffffffffffffffffffff021916908373ffffffffffffffffffffffffffffffffffffffff160217905550916020019190600101906116cc565b5b5090506117329190611854565b5090565b610120604051908101604052806009905b600073ffffffffffffffffffffffffffffffffffffffff168152602001906001900390816117475790505090565b61185191905b8082111561184d57600080820160006101000a81549073ffffffffffffffffffffffffffffffffffffffff02191690556001820160006101000a81549073ffffffffffffffffffffffffffffffffffffffff02191690556002820160006117e29190611897565b600b820160006101000a81549073ffffffffffffffffffffffffffffffffffffffff0219169055600b820160146101000a81549060ff0219169055600c820160006101000a81549073ffffffffffffffffffffffffffffffffffffffff021916905550600d0161177b565b5090565b90565b61189491905b8082111561189057600081816101000a81549073ffffffffffffffffffffffffffffffffffffffff02191690555060010161185a565b5090565b90565b5080600901906118a791906118aa565b50565b6118cc91905b808211156118c85760008160009055506001016118b0565b5090565b905600a165627a7a723058205f0cbef74d16f2fdade9f9e8a6e832c7ec660537dff1a61f15c9687f3a31040c0029",
  "source": "pragma solidity ^0.4.17;\ncontract TicTacToe{\n\n    struct Game {\n        address player1;\n        address player2;\n        address[9] board;\n        address winner;\n        bool hasWon;\n        address turn;\n    }\n\n\n\n    Game[] public games;\n\n    event WhoMadeTheMove(address a);\n    event EnterWinnerCheck(address b);\n    event FoundWinner(address c);\n    event ShowTurn(address d);\n    event ShowMEWhatIJustPushed(address e,address f,address[9] g,address h ,bool i ,address j);\n    event TieGameStill(string random);\n\n\n\n\n\n    function createGame(address _player1, address _player2) public {\n        address[9] memory board;\n        games.push(Game(_player1, _player2, board, 0, false, _player1));\n\n\n    }\n\n\n\n\n    function makeMove(  uint id, uint8 _xy) public { // will return true if one player won and game is over\n        // WhoMadeTheMove(msg.sender);     // id is for which game you are playing\n\n\n        Game memory g = games[id];\n\n        require(g.turn == msg.sender);\n        require(g.board[_xy] == 0);\n        require(g.hasWon != true);\n        games[id].board[_xy] = msg.sender;\n        games[id].turn = msg.sender == g.player1 ? g.player2 : g.player1;\n\n        ShowTurn(games[id].turn);\n        g = games[id];\n\n        if(checkWin(g, msg.sender) == true){\n            FoundWinner(msg.sender);\n            games[id].winner = msg.sender;\n            games[id].hasWon = true;\n\n\n        }else{\n            TieGameStill('No winners yet');\n        }\n\n\n\n\n    }\n\n    function setWinner(Game _g, address _winner) private returns (bool) {\n        _g.winner = _winner;\n        _g.hasWon = true;\n        return true;\n    }\n\n\n\n    function checkWin(Game _game, address _player) private  returns (bool) {\n\n        if (\n            (_game.board[0] == _player && _game.board[1] == _player && _game.board[2] == _player) ||\n            (_game.board[3] == _player && _game.board[4] == _player && _game.board[5] == _player) ||\n            (_game.board[6] == _player && _game.board[7] == _player && _game.board[8] == _player) ||\n            (_game.board[0] == _player && _game.board[3] == _player && _game.board[6] == _player) ||\n            (_game.board[1] == _player && _game.board[4] == _player && _game.board[7] == _player) ||\n            (_game.board[2] == _player && _game.board[5] == _player && _game.board[8] == _player) ||\n            (_game.board[0] == _player && _game.board[4] == _player && _game.board[8] == _player) ||\n            (_game.board[2] == _player && _game.board[4] == _player && _game.board[6] == _player)\n        ) {\n\n            setWinner(_game,_player);\n            return true;\n        } else {\n            return false;\n        }\n\n    }\n\n    function getBoard (uint id) public view returns (address[9]) {\n\n\n        address[9] memory board = games[id].board;\n\n\n        return board;\n    }\n}\n",
  "sourcePath": "/home/sahar/Documents/workspace/tictac/contracts/TicTacToe.sol",
  "compiler": {
    "name": "solc",
    "version": "0.4.19+commit.c4cbbb05.Emscripten.clang"
  },
  "schemaVersion": "1.0.1",
  "updatedAt": "2018-04-09T21:27:37.008Z"
}