{
  "contractName": "TicTacToe",
  "abi": [
    {
      "constant": true,
      "inputs": [
        {
          "name": "",
          "type": "uint256"
        }
      ],
      "name": "games",
      "outputs": [
        {
          "name": "player1",
          "type": "address"
        },
        {
          "name": "player2",
          "type": "address"
        },
        {
          "name": "winner",
          "type": "address"
        },
        {
          "name": "hasWon",
          "type": "bool"
        },
        {
          "name": "turn",
          "type": "address"
        }
      ],
      "payable": false,
      "stateMutability": "view",
      "type": "function"
    },
    {
      "anonymous": false,
      "inputs": [
        {
          "indexed": false,
          "name": "a",
          "type": "address"
        }
      ],
      "name": "WhoMadeTheMove",
      "type": "event"
    },
    {
      "anonymous": false,
      "inputs": [
        {
          "indexed": false,
          "name": "b",
          "type": "address"
        }
      ],
      "name": "EnterWinnerCheck",
      "type": "event"
    },
    {
      "anonymous": false,
      "inputs": [
        {
          "indexed": false,
          "name": "c",
          "type": "address"
        }
      ],
      "name": "FoundWinner",
      "type": "event"
    },
    {
      "anonymous": false,
      "inputs": [
        {
          "indexed": false,
          "name": "d",
          "type": "address"
        }
      ],
      "name": "ShowTurn",
      "type": "event"
    },
    {
      "anonymous": false,
      "inputs": [
        {
          "indexed": false,
          "name": "e",
          "type": "address"
        },
        {
          "indexed": false,
          "name": "f",
          "type": "address"
        },
        {
          "indexed": false,
          "name": "g",
          "type": "address[9]"
        },
        {
          "indexed": false,
          "name": "h",
          "type": "address"
        },
        {
          "indexed": false,
          "name": "i",
          "type": "bool"
        },
        {
          "indexed": false,
          "name": "j",
          "type": "address"
        }
      ],
      "name": "ShowMEWhatIJustPushed",
      "type": "event"
    },
    {
      "anonymous": false,
      "inputs": [
        {
          "indexed": false,
          "name": "random",
          "type": "string"
        }
      ],
      "name": "TieGameStill",
      "type": "event"
    },
    {
      "constant": false,
      "inputs": [
        {
          "name": "_p1",
          "type": "address"
        },
        {
          "name": "_player2",
          "type": "address"
        }
      ],
      "name": "createGame",
      "outputs": [],
      "payable": false,
      "stateMutability": "nonpayable",
      "type": "function"
    },
    {
      "constant": false,
      "inputs": [
        {
          "name": "_xy",
          "type": "uint8"
        },
        {
          "name": "id",
          "type": "uint256"
        }
      ],
      "name": "makeMove",
      "outputs": [],
      "payable": false,
      "stateMutability": "nonpayable",
      "type": "function"
    },
    {
      "constant": true,
      "inputs": [
        {
          "name": "id",
          "type": "uint256"
        }
      ],
      "name": "getBoard",
      "outputs": [
        {
          "name": "",
          "type": "address[9]"
        }
      ],
      "payable": false,
      "stateMutability": "view",
      "type": "function"
    }
  ],
  "bytecode": "0x6060604052341561000f57600080fd5b6118f68061001e6000396000f300606060405260043610610062576000357c0100000000000000000000000000000000000000000000000000000000900463ffffffff168063117a5b901461006757806345e09e541461016e5780636b0e052d146101cd578063a6f979ff146101fc575b600080fd5b341561007257600080fd5b6100886004808035906020019091905050610254565b604051808673ffffffffffffffffffffffffffffffffffffffff1673ffffffffffffffffffffffffffffffffffffffff1681526020018573ffffffffffffffffffffffffffffffffffffffff1673ffffffffffffffffffffffffffffffffffffffff1681526020018473ffffffffffffffffffffffffffffffffffffffff1673ffffffffffffffffffffffffffffffffffffffff168152602001831515151581526020018273ffffffffffffffffffffffffffffffffffffffff1673ffffffffffffffffffffffffffffffffffffffff1681526020019550505050505060405180910390f35b341561017957600080fd5b61018f6004808035906020019091905050610326565b6040518082600960200280838360005b838110156101ba57808201518184015260208101905061019f565b5050505090500191505060405180910390f35b34156101d857600080fd5b6101fa600480803560ff169060200190919080359060200190919050506103d3565b005b341561020757600080fd5b610252600480803573ffffffffffffffffffffffffffffffffffffffff1690602001909190803573ffffffffffffffffffffffffffffffffffffffff16906020019091905050610bd8565b005b60008181548110151561026357fe5b90600052602060002090600d02016000915090508060000160009054906101000a900473ffffffffffffffffffffffffffffffffffffffff16908060010160009054906101000a900473ffffffffffffffffffffffffffffffffffffffff169080600b0160009054906101000a900473ffffffffffffffffffffffffffffffffffffffff169080600b0160149054906101000a900460ff169080600c0160009054906101000a900473ffffffffffffffffffffffffffffffffffffffff16905085565b61032e6115ab565b6103366115ab565b60008381548110151561034557fe5b90600052602060002090600d02016002016009806020026040519081016040528092919082600980156103c3576020028201915b8160009054906101000a900473ffffffffffffffffffffffffffffffffffffffff1673ffffffffffffffffffffffffffffffffffffffff1681526020019060010190808311610379575b5050505050905080915050919050565b6103db6115ea565b6000828154811015156103ea57fe5b90600052602060002090600d020160c060405190810160405290816000820160009054906101000a900473ffffffffffffffffffffffffffffffffffffffff1673ffffffffffffffffffffffffffffffffffffffff1673ffffffffffffffffffffffffffffffffffffffff1681526020016001820160009054906101000a900473ffffffffffffffffffffffffffffffffffffffff1673ffffffffffffffffffffffffffffffffffffffff1673ffffffffffffffffffffffffffffffffffffffff16815260200160028201600980602002604051908101604052809291908260098015610522576020028201915b8160009054906101000a900473ffffffffffffffffffffffffffffffffffffffff1673ffffffffffffffffffffffffffffffffffffffff16815260200190600101908083116104d8575b50505050508152602001600b820160009054906101000a900473ffffffffffffffffffffffffffffffffffffffff1673ffffffffffffffffffffffffffffffffffffffff1673ffffffffffffffffffffffffffffffffffffffff168152602001600b820160149054906101000a900460ff16151515158152602001600c820160009054906101000a900473ffffffffffffffffffffffffffffffffffffffff1673ffffffffffffffffffffffffffffffffffffffff1673ffffffffffffffffffffffffffffffffffffffff168152505090503373ffffffffffffffffffffffffffffffffffffffff168160a0015173ffffffffffffffffffffffffffffffffffffffff1614151561063257600080fd5b600081604001518460ff1660098110151561064957fe5b602002015173ffffffffffffffffffffffffffffffffffffffff1614151561067057600080fd5b60011515816080015115151415151561068857600080fd5b3360008381548110151561069857fe5b90600052602060002090600d02016002018460ff166009811015156106b957fe5b0160006101000a81548173ffffffffffffffffffffffffffffffffffffffff021916908373ffffffffffffffffffffffffffffffffffffffff160217905550806000015173ffffffffffffffffffffffffffffffffffffffff163373ffffffffffffffffffffffffffffffffffffffff161461073957806000015161073f565b80602001515b60008381548110151561074e57fe5b90600052602060002090600d0201600c0160006101000a81548173ffffffffffffffffffffffffffffffffffffffff021916908373ffffffffffffffffffffffffffffffffffffffff1602179055507ff9512bf5c694674ca6aec7d7ceb7b983357a8e882098be937cdeeaff9a3ab36d6000838154811015156107cd57fe5b90600052602060002090600d0201600c0160009054906101000a900473ffffffffffffffffffffffffffffffffffffffff16604051808273ffffffffffffffffffffffffffffffffffffffff1673ffffffffffffffffffffffffffffffffffffffff16815260200191505060405180910390a160008281548110151561084f57fe5b90600052602060002090600d020160c060405190810160405290816000820160009054906101000a900473ffffffffffffffffffffffffffffffffffffffff1673ffffffffffffffffffffffffffffffffffffffff1673ffffffffffffffffffffffffffffffffffffffff1681526020016001820160009054906101000a900473ffffffffffffffffffffffffffffffffffffffff1673ffffffffffffffffffffffffffffffffffffffff1673ffffffffffffffffffffffffffffffffffffffff16815260200160028201600980602002604051908101604052809291908260098015610987576020028201915b8160009054906101000a900473ffffffffffffffffffffffffffffffffffffffff1673ffffffffffffffffffffffffffffffffffffffff168152602001906001019080831161093d575b50505050508152602001600b820160009054906101000a900473ffffffffffffffffffffffffffffffffffffffff1673ffffffffffffffffffffffffffffffffffffffff1673ffffffffffffffffffffffffffffffffffffffff168152602001600b820160149054906101000a900460ff16151515158152602001600c820160009054906101000a900473ffffffffffffffffffffffffffffffffffffffff1673ffffffffffffffffffffffffffffffffffffffff1673ffffffffffffffffffffffffffffffffffffffff1681525050905060011515610a678233610def565b15151415610b6b577f0e0e65cec4c1c2f59c27da17a9032d74cbd746912b7780885392a762c60d00e933604051808273ffffffffffffffffffffffffffffffffffffffff1673ffffffffffffffffffffffffffffffffffffffff16815260200191505060405180910390a133600083815481101515610ae257fe5b90600052602060002090600d0201600b0160006101000a81548173ffffffffffffffffffffffffffffffffffffffff021916908373ffffffffffffffffffffffffffffffffffffffff1602179055506001600083815481101515610b4257fe5b90600052602060002090600d0201600b0160146101000a81548160ff0219169083151502179055505b7f62bd1d4b26364362c9cd37eca50ac70430590dd3085fe901e710b3214365b51460405180806020018281038252600e8152602001807f4e6f2077696e6e6572732079657400000000000000000000000000000000000081525060200191505060405180910390a1505050565b610be06115ab565b60008054806001018281610bf49190611682565b91600052602060002090600d0201600060c0604051908101604052808773ffffffffffffffffffffffffffffffffffffffff1681526020018673ffffffffffffffffffffffffffffffffffffffff168152602001858152602001600073ffffffffffffffffffffffffffffffffffffffff1681526020016000151581526020018773ffffffffffffffffffffffffffffffffffffffff16815250909190915060008201518160000160006101000a81548173ffffffffffffffffffffffffffffffffffffffff021916908373ffffffffffffffffffffffffffffffffffffffff16021790555060208201518160010160006101000a81548173ffffffffffffffffffffffffffffffffffffffff021916908373ffffffffffffffffffffffffffffffffffffffff160217905550604082015181600201906009610d389291906116b4565b50606082015181600b0160006101000a81548173ffffffffffffffffffffffffffffffffffffffff021916908373ffffffffffffffffffffffffffffffffffffffff160217905550608082015181600b0160146101000a81548160ff02191690831515021790555060a082015181600c0160006101000a81548173ffffffffffffffffffffffffffffffffffffffff021916908373ffffffffffffffffffffffffffffffffffffffff160217905550505050505050565b60008173ffffffffffffffffffffffffffffffffffffffff1683604001516000600981101515610e1b57fe5b602002015173ffffffffffffffffffffffffffffffffffffffff16148015610e8557508173ffffffffffffffffffffffffffffffffffffffff1683604001516001600981101515610e6857fe5b602002015173ffffffffffffffffffffffffffffffffffffffff16145b8015610ed357508173ffffffffffffffffffffffffffffffffffffffff1683604001516002600981101515610eb657fe5b602002015173ffffffffffffffffffffffffffffffffffffffff16145b80610fbc57508173ffffffffffffffffffffffffffffffffffffffff1683604001516003600981101515610f0357fe5b602002015173ffffffffffffffffffffffffffffffffffffffff16148015610f6d57508173ffffffffffffffffffffffffffffffffffffffff1683604001516004600981101515610f5057fe5b602002015173ffffffffffffffffffffffffffffffffffffffff16145b8015610fbb57508173ffffffffffffffffffffffffffffffffffffffff1683604001516005600981101515610f9e57fe5b602002015173ffffffffffffffffffffffffffffffffffffffff16145b5b806110a557508173ffffffffffffffffffffffffffffffffffffffff1683604001516006600981101515610fec57fe5b602002015173ffffffffffffffffffffffffffffffffffffffff1614801561105657508173ffffffffffffffffffffffffffffffffffffffff168360400151600760098110151561103957fe5b602002015173ffffffffffffffffffffffffffffffffffffffff16145b80156110a457508173ffffffffffffffffffffffffffffffffffffffff168360400151600860098110151561108757fe5b602002015173ffffffffffffffffffffffffffffffffffffffff16145b5b8061118e57508173ffffffffffffffffffffffffffffffffffffffff16836040015160006009811015156110d557fe5b602002015173ffffffffffffffffffffffffffffffffffffffff1614801561113f57508173ffffffffffffffffffffffffffffffffffffffff168360400151600360098110151561112257fe5b602002015173ffffffffffffffffffffffffffffffffffffffff16145b801561118d57508173ffffffffffffffffffffffffffffffffffffffff168360400151600660098110151561117057fe5b602002015173ffffffffffffffffffffffffffffffffffffffff16145b5b8061127757508173ffffffffffffffffffffffffffffffffffffffff16836040015160016009811015156111be57fe5b602002015173ffffffffffffffffffffffffffffffffffffffff1614801561122857508173ffffffffffffffffffffffffffffffffffffffff168360400151600460098110151561120b57fe5b602002015173ffffffffffffffffffffffffffffffffffffffff16145b801561127657508173ffffffffffffffffffffffffffffffffffffffff168360400151600760098110151561125957fe5b602002015173ffffffffffffffffffffffffffffffffffffffff16145b5b8061136057508173ffffffffffffffffffffffffffffffffffffffff16836040015160026009811015156112a757fe5b602002015173ffffffffffffffffffffffffffffffffffffffff1614801561131157508173ffffffffffffffffffffffffffffffffffffffff16836040015160056009811015156112f457fe5b602002015173ffffffffffffffffffffffffffffffffffffffff16145b801561135f57508173ffffffffffffffffffffffffffffffffffffffff168360400151600860098110151561134257fe5b602002015173ffffffffffffffffffffffffffffffffffffffff16145b5b8061144957508173ffffffffffffffffffffffffffffffffffffffff168360400151600060098110151561139057fe5b602002015173ffffffffffffffffffffffffffffffffffffffff161480156113fa57508173ffffffffffffffffffffffffffffffffffffffff16836040015160046009811015156113dd57fe5b602002015173ffffffffffffffffffffffffffffffffffffffff16145b801561144857508173ffffffffffffffffffffffffffffffffffffffff168360400151600860098110151561142b57fe5b602002015173ffffffffffffffffffffffffffffffffffffffff16145b5b8061153257508173ffffffffffffffffffffffffffffffffffffffff168360400151600260098110151561147957fe5b602002015173ffffffffffffffffffffffffffffffffffffffff161480156114e357508173ffffffffffffffffffffffffffffffffffffffff16836040015160046009811015156114c657fe5b602002015173ffffffffffffffffffffffffffffffffffffffff16145b801561153157508173ffffffffffffffffffffffffffffffffffffffff168360400151600660098110151561151457fe5b602002015173ffffffffffffffffffffffffffffffffffffffff16145b5b1561154b576115418383611556565b5060019050611550565b600090505b92915050565b600081836060019073ffffffffffffffffffffffffffffffffffffffff16908173ffffffffffffffffffffffffffffffffffffffff168152505060018360800190151590811515815250506001905092915050565b610120604051908101604052806009905b600073ffffffffffffffffffffffffffffffffffffffff168152602001906001900390816115bc5790505090565b6101c060405190810160405280600073ffffffffffffffffffffffffffffffffffffffff168152602001600073ffffffffffffffffffffffffffffffffffffffff168152602001611639611731565b8152602001600073ffffffffffffffffffffffffffffffffffffffff168152602001600015158152602001600073ffffffffffffffffffffffffffffffffffffffff1681525090565b8154818355818115116116af57600d0281600d0283600052602060002091820191016116ae9190611770565b5b505050565b8260098101928215611720579160200282015b8281111561171f5782518260006101000a81548173ffffffffffffffffffffffffffffffffffffffff021916908373ffffffffffffffffffffffffffffffffffffffff160217905550916020019190600101906116c7565b5b50905061172d919061184f565b5090565b610120604051908101604052806009905b600073ffffffffffffffffffffffffffffffffffffffff168152602001906001900390816117425790505090565b61184c91905b8082111561184857600080820160006101000a81549073ffffffffffffffffffffffffffffffffffffffff02191690556001820160006101000a81549073ffffffffffffffffffffffffffffffffffffffff02191690556002820160006117dd9190611892565b600b820160006101000a81549073ffffffffffffffffffffffffffffffffffffffff0219169055600b820160146101000a81549060ff0219169055600c820160006101000a81549073ffffffffffffffffffffffffffffffffffffffff021916905550600d01611776565b5090565b90565b61188f91905b8082111561188b57600081816101000a81549073ffffffffffffffffffffffffffffffffffffffff021916905550600101611855565b5090565b90565b5080600901906118a291906118a5565b50565b6118c791905b808211156118c35760008160009055506001016118ab565b5090565b905600a165627a7a7230582063e1fdd4595bac0fc57434a538ca8f908e5e98fefe94a6ccf6841f472cc9f8130029",
  "source": "pragma solidity ^0.4.17;\ncontract TicTacToe{\n\n    struct Game {\n        address player1;\n        address player2;\n        address[9] board;\n        address winner;\n        bool hasWon;\n        address turn;\n    }\n\n\n\n    Game[] public games;\n\n    event WhoMadeTheMove(address a);\n    event EnterWinnerCheck(address b);\n    event FoundWinner(address c);\n    event ShowTurn(address d);\n    event ShowMEWhatIJustPushed(address e,address f,address[9] g,address h ,bool i ,address j);\n    event TieGameStill(string random);\n\n\n\n\n\n    function createGame(address _p1, address _player2) public {\n        address[9] memory board;\n        games.push(Game(_p1, _player2, board, 0, false, _p1));\n\n\n    }\n\n\n\n\n    function makeMove( uint8 _xy, uint id) public { // will return true if one player won and game is over\n        // WhoMadeTheMove(msg.sender);     // id is for which game you are playing\n        //ShowTurn(msg.sender);\n\n        Game memory g = games[id];\n\n        require(g.turn == msg.sender);\n        require(g.board[_xy] == 0);\n        require(g.hasWon != true);\n        games[id].board[_xy] = msg.sender;\n        games[id].turn = msg.sender == g.player1 ? g.player2 : g.player1;\n\n        ShowTurn(games[id].turn);\n        g = games[id];\n\n        if(checkWin(g, msg.sender) == true){\n            FoundWinner(msg.sender);\n            games[id].winner = msg.sender;\n            games[id].hasWon = true;\n\n\n        }\n\n    TieGameStill('No winners yet');\n\n\n    }\n\n    function setWinner(Game _g, address _winner) private returns (bool) {\n        _g.winner = _winner;\n        _g.hasWon = true;\n        return true;\n    }\n\n\n\n    function checkWin(Game _game, address _player) private  returns (bool) {\n\n        if (\n            (_game.board[0] == _player && _game.board[1] == _player && _game.board[2] == _player) ||\n            (_game.board[3] == _player && _game.board[4] == _player && _game.board[5] == _player) ||\n            (_game.board[6] == _player && _game.board[7] == _player && _game.board[8] == _player) ||\n            (_game.board[0] == _player && _game.board[3] == _player && _game.board[6] == _player) ||\n            (_game.board[1] == _player && _game.board[4] == _player && _game.board[7] == _player) ||\n            (_game.board[2] == _player && _game.board[5] == _player && _game.board[8] == _player) ||\n            (_game.board[0] == _player && _game.board[4] == _player && _game.board[8] == _player) ||\n            (_game.board[2] == _player && _game.board[4] == _player && _game.board[6] == _player)\n        ) {\n\n            setWinner(_game,_player);\n            return true;\n        } else {\n            return false;\n        }\n\n    }\n\n    function getBoard (uint id) public view returns (address[9]) {\n\n\n        address[9] memory board = games[id].board;\n\n\n        return board;\n    }\n}\n",
  "sourcePath": "/home/sahar/Documents/workspace/tictac/contracts/TicTacToe.sol",
  "compiler": {
    "name": "solc",
    "version": "0.4.19+commit.c4cbbb05.Emscripten.clang"
  },
  "schemaVersion": "1.0.1",
  "updatedAt": "2018-04-06T22:51:05.383Z"
}